{
  "contractName": "Opinion",
  "abi": [
    {
      "constant": true,
      "inputs": [
        {
          "internalType": "uint256",
          "name": "",
          "type": "uint256"
        }
      ],
      "name": "topicExists",
      "outputs": [
        {
          "internalType": "bool",
          "name": "",
          "type": "bool"
        }
      ],
      "payable": false,
      "stateMutability": "view",
      "type": "function"
    },
    {
      "constant": true,
      "inputs": [
        {
          "internalType": "uint256",
          "name": "",
          "type": "uint256"
        }
      ],
      "name": "topicList",
      "outputs": [
        {
          "internalType": "uint256",
          "name": "id",
          "type": "uint256"
        },
        {
          "internalType": "uint256",
          "name": "voteFor",
          "type": "uint256"
        },
        {
          "internalType": "uint256",
          "name": "voteAgainst",
          "type": "uint256"
        }
      ],
      "payable": false,
      "stateMutability": "view",
      "type": "function"
    },
    {
      "constant": true,
      "inputs": [
        {
          "internalType": "address",
          "name": "",
          "type": "address"
        },
        {
          "internalType": "uint256",
          "name": "",
          "type": "uint256"
        }
      ],
      "name": "voters",
      "outputs": [
        {
          "internalType": "bool",
          "name": "",
          "type": "bool"
        }
      ],
      "payable": false,
      "stateMutability": "view",
      "type": "function"
    },
    {
      "constant": false,
      "inputs": [
        {
          "internalType": "uint256",
          "name": "_id",
          "type": "uint256"
        }
      ],
      "name": "addTopic",
      "outputs": [],
      "payable": false,
      "stateMutability": "nonpayable",
      "type": "function"
    },
    {
      "constant": false,
      "inputs": [
        {
          "internalType": "uint256",
          "name": "_id",
          "type": "uint256"
        }
      ],
      "name": "voteFor",
      "outputs": [],
      "payable": false,
      "stateMutability": "nonpayable",
      "type": "function"
    },
    {
      "constant": false,
      "inputs": [
        {
          "internalType": "uint256",
          "name": "_id",
          "type": "uint256"
        }
      ],
      "name": "voteAgainst",
      "outputs": [],
      "payable": false,
      "stateMutability": "nonpayable",
      "type": "function"
    }
  ],
  "bytecode": "0x608060405234801561001057600080fd5b50610771806100206000396000f3fe608060405234801561001057600080fd5b50600436106100625760003560e01c80632d8a822f14610067578063585b131f146100955780635c134d66146100db578063750e443a1461014157806384ef6cf71461016f57806386a50535146101bf575b600080fd5b6100936004803603602081101561007d57600080fd5b81019080803590602001909291905050506101ed565b005b6100c1600480360360208110156100ab57600080fd5b81019080803590602001909291905050506102e2565b604051808215151515815260200191505060405180910390f35b610127600480360360408110156100f157600080fd5b81019080803573ffffffffffffffffffffffffffffffffffffffff16906020019092919080359060200190929190505050610302565b604051808215151515815260200191505060405180910390f35b61016d6004803603602081101561015757600080fd5b8101908080359060200190929190505050610331565b005b61019b6004803603602081101561018557600080fd5b81019080803590602001909291905050506104ec565b60405180848152602001838152602001828152602001935050505060405180910390f35b6101eb600480360360208110156101d557600080fd5b8101908080359060200190929190505050610516565b005b6001600082815260200190815260200160002060009054906101000a900460ff1615610264576040517f08c379a00000000000000000000000000000000000000000000000000000000081526004018080602001828103825260258152602001806106f76025913960400191505060405180910390fd5b6040518060600160405280828152602001600081526020016000815250600080838152602001908152602001600020600082015181600001556020820151816001015560408201518160020155905050600180600083815260200190815260200160002060006101000a81548160ff02191690831515021790555050565b60016020528060005260406000206000915054906101000a900460ff1681565b60026020528160005260406000206020528060005260406000206000915091509054906101000a900460ff1681565b6001600082815260200190815260200160002060009054906101000a900460ff166103a7576040517f08c379a000000000000000000000000000000000000000000000000000000000815260040180806020018281038252602181526020018061071c6021913960400191505060405180910390fd5b600260003373ffffffffffffffffffffffffffffffffffffffff1673ffffffffffffffffffffffffffffffffffffffff168152602001908152602001600020600082815260200190815260200160002060009054906101000a900460ff161561045b576040517f08c379a00000000000000000000000000000000000000000000000000000000081526004018080602001828103825260258152602001806106d26025913960400191505060405180910390fd5b6001600260003373ffffffffffffffffffffffffffffffffffffffff1673ffffffffffffffffffffffffffffffffffffffff168152602001908152602001600020600083815260200190815260200160002060006101000a81548160ff0219169083151502179055506000808281526020019081526020016000206002016000815480929190600101919050555050565b60006020528060005260406000206000915090508060000154908060010154908060020154905083565b6001600082815260200190815260200160002060009054906101000a900460ff1661058c576040517f08c379a000000000000000000000000000000000000000000000000000000000815260040180806020018281038252602181526020018061071c6021913960400191505060405180910390fd5b600260003373ffffffffffffffffffffffffffffffffffffffff1673ffffffffffffffffffffffffffffffffffffffff168152602001908152602001600020600082815260200190815260200160002060009054906101000a900460ff1615610640576040517f08c379a00000000000000000000000000000000000000000000000000000000081526004018080602001828103825260258152602001806106d26025913960400191505060405180910390fd5b6001600260003373ffffffffffffffffffffffffffffffffffffffff1673ffffffffffffffffffffffffffffffffffffffff168152602001908152602001600020600083815260200190815260200160002060006101000a81548160ff021916908315150217905550600080828152602001908152602001600020600101600081548092919060010191905055505056fe557365722068617320616c726561647920766f746564206f6e20676976656e20746f706963546f706963207769746820676976656e20746f70696320616c726561647920657869737473746f706963206f6620676976656e20696420446f6573206e6f7420657869737473a265627a7a7231582067300cefd26d74f39d3116f8673cc754d243a017f65133712e56ab6c3b161a5e64736f6c63430005100032",
  "source": "// SPDX-License-Identifier: MIT\r\npragma solidity >=0.4.21 <0.7.0;\r\n\r\ncontract Opinion\r\n{\r\n\r\n    struct Topic\r\n    {\r\n        uint id;\r\n        uint voteFor;\r\n        uint voteAgainst;\r\n    }\r\n    mapping(uint => Topic) public topicList;\r\n    mapping(uint => bool) public topicExists;\r\n\r\n    function addTopic(uint _id) public\r\n    {\r\n        // Validate if _id is already used for a topic\r\n        require(!topicExists[_id], \"Topic with given topic already exists\");\r\n    \r\n        topicList[_id] = Topic(_id, 0, 0);\r\n        topicExists[_id] = true;\r\n    }\r\n\r\n    mapping(address => mapping(uint => bool)) public voters;\r\n\r\n    function voteFor(uint _id) public\r\n    {\r\n        // Validate topic id\r\n        require(topicExists[_id], \"topic of given id Does not exists\");\r\n\r\n        // Validate if user has already voted\r\n        require(!voters[msg.sender][_id], \"User has already voted on given topic\");\r\n\r\n        // Record user vote\r\n\r\n        voters[msg.sender][_id] = true;\r\n        topicList[_id].voteFor++;\r\n    }\r\n\r\n    function voteAgainst(uint _id) public\r\n    {\r\n        // Validate topic id\r\n        require(topicExists[_id], \"topic of given id Does not exists\");\r\n\r\n        // Validate if user has already voted\r\n        require(!voters[msg.sender][_id], \"User has already voted on given topic\");\r\n\r\n        // Record user vote\r\n\r\n        voters[msg.sender][_id] = true;\r\n        topicList[_id].voteAgainst++;\r\n    }\r\n\r\n}",
  "sourcePath": "C:\\Users\\Tejas\\Projects\\Polling-system\\contracts\\Opinion.sol",
  "compiler": {
    "name": "solc",
    "version": "0.5.16+commit.9c3226ce.Emscripten.clang"
  },
  "schemaVersion": "3.2.2",
  "updatedAt": "2020-07-30T13:34:06.154Z",
  "networkType": "ethereum",
  "devdoc": {
    "methods": {}
  },
  "userdoc": {
    "methods": {}
  }
}