{
  "contractName": "Category",
  "abi": [
    {
      "constant": true,
      "inputs": [
        {
          "internalType": "uint256",
          "name": "",
          "type": "uint256"
        }
      ],
      "name": "topicList",
      "outputs": [
        {
          "internalType": "uint256",
          "name": "id",
          "type": "uint256"
        },
        {
          "internalType": "uint256",
          "name": "voteFor",
          "type": "uint256"
        },
        {
          "internalType": "uint256",
          "name": "voteAgainst",
          "type": "uint256"
        }
      ],
      "payable": false,
      "stateMutability": "view",
      "type": "function"
    },
    {
      "constant": false,
      "inputs": [
        {
          "internalType": "uint256",
          "name": "_id",
          "type": "uint256"
        }
      ],
      "name": "addTopic",
      "outputs": [],
      "payable": false,
      "stateMutability": "nonpayable",
      "type": "function"
    }
  ],
  "bytecode": "0x608060405234801561001057600080fd5b5061016b806100206000396000f3fe608060405234801561001057600080fd5b50600436106100365760003560e01c80632d8a822f1461003b57806384ef6cf714610069575b600080fd5b6100676004803603602081101561005157600080fd5b81019080803590602001909291905050506100b9565b005b6100956004803603602081101561007f57600080fd5b810190808035906020019092919050505061010c565b60405180848152602001838152602001828152602001935050505060405180910390f35b604051806060016040528082815260200160008152602001600081525060008083815260200190815260200160002060008201518160000155602082015181600101556040820151816002015590505050565b6000602052806000526040600020600091509050806000015490806001015490806002015490508356fea265627a7a723158202de322a7ca4ce927cf6ab4b00062eaa6106cbecea70bb0114b55b94360738ff864736f6c63430005100032",
  "source": "// SPDX-License-Identifier: MIT\r\npragma solidity >=0.4.21 <0.7.0;\r\n\r\n// Category.deployed().then(function(i) {cat = i;})\r\n// Factory.deployed().then(function(i) {fact = i;})\r\n\r\ncontract Category\r\n{\r\n    // string public topicHeader;\r\n    // uint public opinionCount;\r\n\r\n    // struct Opinion\r\n    // {\r\n    //     uint id;\r\n    //     string topic;\r\n    //     uint voteFor;\r\n    //     uint voteAgainst;\r\n    // }\r\n\r\n    // mapping (uint => Opinion) public opinions;\r\n    // function setTopicHeader(string memory _topicHeader) public\r\n    // {\r\n    //     topicHeader = _topicHeader;\r\n    // }\r\n\r\n    // function addNewOpinion(string memory _topic) public\r\n    // {\r\n    //     opinionCount ++;\r\n\r\n    //     opinions[opinionCount] = Opinion(opinionCount, _topic, 0, 0);\r\n    // }\r\n\r\n    struct Topic\r\n    {\r\n        uint id;\r\n        uint voteFor;\r\n        uint voteAgainst;\r\n    }\r\n    mapping(uint => Topic) public topicList;\r\n\r\n    function addTopic(uint _id) public\r\n    {\r\n        topicList[_id] = Topic(_id, 0, 0);\r\n    }\r\n\r\n}\r\n\r\n// contract Factory\r\n// {\r\n//     mapping (string => address) public categoryList;\r\n//     mapping (string => bool) public categoryExists;\r\n\r\n//     event opinionAdded(string _topic);\r\n//     event CategoryCreated(string _topicHeader);\r\n\r\n//     function addNewOpinion(string memory _topicHeader, string memory _topic) public\r\n//     {\r\n//         address categoryAddress = getCategoryAddress(_topicHeader);\r\n//         Category categoryInstance = Category(categoryAddress);\r\n\r\n//         require(categoryExists[_topicHeader], \"New Category contract was not created\");\r\n\r\n//         categoryInstance.addNewOpinion(_topic);\r\n\r\n//         emit opinionAdded(_topic);\r\n\r\n//     }\r\n\r\n//     function getCategoryAddress(string memory _topicHeader) public returns (address)\r\n//     {\r\n//         if(categoryExists[_topicHeader])\r\n//             return categoryList[_topicHeader];\r\n//         else\r\n//             createNewCategory(_topicHeader);\r\n//     }\r\n\r\n//     function createNewCategory(string memory _topicHeader) public returns (address)\r\n//     {\r\n//         Category t = new Category();\r\n//         t.setTopicHeader(_topicHeader);\r\n\r\n//         addCategory(_topicHeader, address(t));\r\n//         emit CategoryCreated(_topicHeader);\r\n//         return address(t);\r\n//     }\r\n\r\n//     function addCategory(string memory _topicHeader, address _address) public\r\n//     {\r\n//         categoryList[_topicHeader] = _address;\r\n//         categoryExists[_topicHeader] = true;\r\n//     }\r\n\r\n// }",
  "sourcePath": "C:\\Users\\Tejas\\Projects\\Polling-system\\contracts\\Factory.sol",
  "compiler": {
    "name": "solc",
    "version": "0.5.16+commit.9c3226ce.Emscripten.clang"
  },
  "schemaVersion": "3.2.2",
  "updatedAt": "2020-07-29T13:22:32.532Z",
  "networkType": "ethereum",
  "devdoc": {
    "methods": {}
  },
  "userdoc": {
    "methods": {}
  }
}