{
  "contractName": "Factory",
  "abi": [
    {
      "anonymous": false,
      "inputs": [
        {
          "indexed": false,
          "internalType": "string",
          "name": "_topicHeader",
          "type": "string"
        }
      ],
      "name": "CategoryCreated",
      "type": "event"
    },
    {
      "anonymous": false,
      "inputs": [
        {
          "indexed": false,
          "internalType": "string",
          "name": "_topic",
          "type": "string"
        }
      ],
      "name": "opinionAdded",
      "type": "event"
    },
    {
      "constant": true,
      "inputs": [
        {
          "internalType": "string",
          "name": "",
          "type": "string"
        }
      ],
      "name": "categoryExists",
      "outputs": [
        {
          "internalType": "bool",
          "name": "",
          "type": "bool"
        }
      ],
      "payable": false,
      "stateMutability": "view",
      "type": "function"
    },
    {
      "constant": true,
      "inputs": [
        {
          "internalType": "string",
          "name": "",
          "type": "string"
        }
      ],
      "name": "categoryList",
      "outputs": [
        {
          "internalType": "address",
          "name": "",
          "type": "address"
        }
      ],
      "payable": false,
      "stateMutability": "view",
      "type": "function"
    },
    {
      "constant": false,
      "inputs": [
        {
          "internalType": "string",
          "name": "_topicHeader",
          "type": "string"
        },
        {
          "internalType": "string",
          "name": "_topic",
          "type": "string"
        }
      ],
      "name": "addNewOpinion",
      "outputs": [],
      "payable": false,
      "stateMutability": "nonpayable",
      "type": "function"
    },
    {
      "constant": false,
      "inputs": [
        {
          "internalType": "string",
          "name": "_topicHeader",
          "type": "string"
        }
      ],
      "name": "getCategoryAddress",
      "outputs": [
        {
          "internalType": "address",
          "name": "",
          "type": "address"
        }
      ],
      "payable": false,
      "stateMutability": "nonpayable",
      "type": "function"
    },
    {
      "constant": false,
      "inputs": [
        {
          "internalType": "string",
          "name": "_topicHeader",
          "type": "string"
        }
      ],
      "name": "createNewCategory",
      "outputs": [
        {
          "internalType": "address",
          "name": "",
          "type": "address"
        }
      ],
      "payable": false,
      "stateMutability": "nonpayable",
      "type": "function"
    },
    {
      "constant": false,
      "inputs": [
        {
          "internalType": "string",
          "name": "_topicHeader",
          "type": "string"
        },
        {
          "internalType": "address",
          "name": "_address",
          "type": "address"
        }
      ],
      "name": "addCategory",
      "outputs": [],
      "payable": false,
      "stateMutability": "nonpayable",
      "type": "function"
    }
  ],
  "bytecode": "0x608060405234801561001057600080fd5b50611443806100206000396000f3fe608060405234801561001057600080fd5b50600436106100625760003560e01c806308c4b60f146100675780632ab44d691461013a5780632fc1d16d1461023557806351e8395d146103875780637447fc6014610482578063c69f89fa1461057d575b600080fd5b6101206004803603602081101561007d57600080fd5b810190808035906020019064010000000081111561009a57600080fd5b8201836020820111156100ac57600080fd5b803590602001918460018302840111640100000000831117156100ce57600080fd5b91908080601f016020809104026020016040519081016040528093929190818152602001838380828437600081840152601f19601f820116905080830192505050505050509192919290505050610658565b604051808215151515815260200191505060405180910390f35b6101f36004803603602081101561015057600080fd5b810190808035906020019064010000000081111561016d57600080fd5b82018360208201111561017f57600080fd5b803590602001918460018302840111640100000000831117156101a157600080fd5b91908080601f016020809104026020016040519081016040528093929190818152602001838380828437600081840152601f19601f82011690508083019250505050505050919291929050505061068e565b604051808273ffffffffffffffffffffffffffffffffffffffff1673ffffffffffffffffffffffffffffffffffffffff16815260200191505060405180910390f35b6103856004803603604081101561024b57600080fd5b810190808035906020019064010000000081111561026857600080fd5b82018360208201111561027a57600080fd5b8035906020019184600183028401116401000000008311171561029c57600080fd5b91908080601f016020809104026020016040519081016040528093929190818152602001838380828437600081840152601f19601f820116905080830192505050505050509192919290803590602001906401000000008111156102ff57600080fd5b82018360208201111561031157600080fd5b8035906020019184600183028401116401000000008311171561033357600080fd5b91908080601f016020809104026020016040519081016040528093929190818152602001838380828437600081840152601f19601f82011690508083019250505050505050919291929050505061083b565b005b6104406004803603602081101561039d57600080fd5b81019080803590602001906401000000008111156103ba57600080fd5b8201836020820111156103cc57600080fd5b803590602001918460018302840111640100000000831117156103ee57600080fd5b91908080601f016020809104026020016040519081016040528093929190818152602001838380828437600081840152601f19601f820116905080830192505050505050509192919290505050610a8b565b604051808273ffffffffffffffffffffffffffffffffffffffff1673ffffffffffffffffffffffffffffffffffffffff16815260200191505060405180910390f35b61053b6004803603602081101561049857600080fd5b81019080803590602001906401000000008111156104b557600080fd5b8201836020820111156104c757600080fd5b803590602001918460018302840111640100000000831117156104e957600080fd5b91908080601f016020809104026020016040519081016040528093929190818152602001838380828437600081840152601f19601f820116905080830192505050505050509192919290505050610ad4565b604051808273ffffffffffffffffffffffffffffffffffffffff1673ffffffffffffffffffffffffffffffffffffffff16815260200191505060405180910390f35b6106566004803603604081101561059357600080fd5b81019080803590602001906401000000008111156105b057600080fd5b8201836020820111156105c257600080fd5b803590602001918460018302840111640100000000831117156105e457600080fd5b91908080601f016020809104026020016040519081016040528093929190818152602001838380828437600081840152601f19601f820116905080830192505050505050509192919290803573ffffffffffffffffffffffffffffffffffffffff169060200190929190505050610bf3565b005b6001818051602081018201805184825260208301602085012081835280955050505050506000915054906101000a900460ff1681565b60008060405161069d90610d20565b604051809103906000f0801580156106b9573d6000803e3d6000fd5b5090508073ffffffffffffffffffffffffffffffffffffffff1663bcbdff6a846040518263ffffffff1660e01b81526004018080602001828103825283818151815260200191508051906020019080838360005b8381101561072857808201518184015260208101905061070d565b50505050905090810190601f1680156107555780820380516001836020036101000a031916815260200191505b5092505050600060405180830381600087803b15801561077457600080fd5b505af1158015610788573d6000803e3d6000fd5b505050506107968382610bf3565b7f83c0d2e1f23741433c1b43ceae1ebc1f26593a1aaab67366bd3ed29491ae1d8d836040518080602001828103825283818151815260200191508051906020019080838360005b838110156107f85780820151818401526020810190506107dd565b50505050905090810190601f1680156108255780820380516001836020036101000a031916815260200191505b509250505060405180910390a180915050919050565b600061084683610ad4565b905060008190506001846040518082805190602001908083835b602083106108835780518252602082019150602081019050602083039250610860565b6001836020036101000a038019825116818451168082178552505050505050905001915050908152602001604051809103902060009054906101000a900460ff16610919576040517f08c379a00000000000000000000000000000000000000000000000000000000081526004018080602001828103825260258152602001806113ea6025913960400191505060405180910390fd5b8073ffffffffffffffffffffffffffffffffffffffff1663f7aaec7e846040518263ffffffff1660e01b81526004018080602001828103825283818151815260200191508051906020019080838360005b8381101561098557808201518184015260208101905061096a565b50505050905090810190601f1680156109b25780820380516001836020036101000a031916815260200191505b5092505050600060405180830381600087803b1580156109d157600080fd5b505af11580156109e5573d6000803e3d6000fd5b505050507fd6c41a29112710c3b9e047e8cc07d99e6e7b6edbb6f34cfdb379a6f6fc8deb8b836040518080602001828103825283818151815260200191508051906020019080838360005b83811015610a4b578082015181840152602081019050610a30565b50505050905090810190601f168015610a785780820380516001836020036101000a031916815260200191505b509250505060405180910390a150505050565b6000818051602081018201805184825260208301602085012081835280955050505050506000915054906101000a900473ffffffffffffffffffffffffffffffffffffffff1681565b60006001826040518082805190602001908083835b60208310610b0c5780518252602082019150602081019050602083039250610ae9565b6001836020036101000a038019825116818451168082178552505050505050905001915050908152602001604051809103902060009054906101000a900460ff1615610be3576000826040518082805190602001908083835b60208310610b885780518252602082019150602081019050602083039250610b65565b6001836020036101000a038019825116818451168082178552505050505050905001915050908152602001604051809103902060009054906101000a900473ffffffffffffffffffffffffffffffffffffffff169050610bee565b610bec8261068e565b505b919050565b806000836040518082805190602001908083835b60208310610c2a5780518252602082019150602081019050602083039250610c07565b6001836020036101000a038019825116818451168082178552505050505050905001915050908152602001604051809103902060006101000a81548173ffffffffffffffffffffffffffffffffffffffff021916908373ffffffffffffffffffffffffffffffffffffffff160217905550600180836040518082805190602001908083835b60208310610cd25780518252602082019150602081019050602083039250610caf565b6001836020036101000a038019825116818451168082178552505050505050905001915050908152602001604051809103902060006101000a81548160ff0219169083151502179055505050565b6106bc80610d2e8339019056fe608060405234801561001057600080fd5b5061069c806100206000396000f3fe608060405234801561001057600080fd5b50600436106100575760003560e01c80631754b3151461005c57806368d9b1c914610118578063bcbdff6a14610136578063e4448282146101f1578063f7aaec7e14610274575b600080fd5b6100886004803603602081101561007257600080fd5b810190808035906020019092919050505061032f565b6040518085815260200180602001848152602001838152602001828103825285818151815260200191508051906020019080838360005b838110156100da5780820151818401526020810190506100bf565b50505050905090810190601f1680156101075780820380516001836020036101000a031916815260200191505b509550505050505060405180910390f35b6101206103f7565b6040518082815260200191505060405180910390f35b6101ef6004803603602081101561014c57600080fd5b810190808035906020019064010000000081111561016957600080fd5b82018360208201111561017b57600080fd5b8035906020019184600183028401116401000000008311171561019d57600080fd5b91908080601f016020809104026020016040519081016040528093929190818152602001838380828437600081840152601f19601f8201169050808301925050505050505091929192905050506103fd565b005b6101f9610417565b6040518080602001828103825283818151815260200191508051906020019080838360005b8381101561023957808201518184015260208101905061021e565b50505050905090810190601f1680156102665780820380516001836020036101000a031916815260200191505b509250505060405180910390f35b61032d6004803603602081101561028a57600080fd5b81019080803590602001906401000000008111156102a757600080fd5b8201836020820111156102b957600080fd5b803590602001918460018302840111640100000000831117156102db57600080fd5b91908080601f016020809104026020016040519081016040528093929190818152602001838380828437600081840152601f19601f8201169050808301925050505050505091929192905050506104b5565b005b6002602052806000526040600020600091509050806000015490806001018054600181600116156101000203166002900480601f0160208091040260200160405190810160405280929190818152602001828054600181600116156101000203166002900480156103e15780601f106103b6576101008083540402835291602001916103e1565b820191906000526020600020905b8154815290600101906020018083116103c457829003601f168201915b5050505050908060020154908060030154905084565b60015481565b8060009080519060200190610413929190610542565b5050565b60008054600181600116156101000203166002900480601f0160208091040260200160405190810160405280929190818152602001828054600181600116156101000203166002900480156104ad5780601f10610482576101008083540402835291602001916104ad565b820191906000526020600020905b81548152906001019060200180831161049057829003601f168201915b505050505081565b600160008154809291906001019190505550604051806080016040528060015481526020018281526020016000815260200160008152506002600060015481526020019081526020016000206000820151816000015560208201518160010190805190602001906105279291906105c2565b50604082015181600201556060820151816003015590505050565b828054600181600116156101000203166002900490600052602060002090601f016020900481019282601f1061058357805160ff19168380011785556105b1565b828001600101855582156105b1579182015b828111156105b0578251825591602001919060010190610595565b5b5090506105be9190610642565b5090565b828054600181600116156101000203166002900490600052602060002090601f016020900481019282601f1061060357805160ff1916838001178555610631565b82800160010185558215610631579182015b82811115610630578251825591602001919060010190610615565b5b50905061063e9190610642565b5090565b61066491905b80821115610660576000816000905550600101610648565b5090565b9056fea265627a7a7231582043107802f6236da675fc414f7f372900f594d9116c8e43791a24b77e43e94e1864736f6c634300051000324e65772043617465676f727920636f6e747261637420776173206e6f742063726561746564a265627a7a723158203946aee702d5eaf68f55cca47dd8b55b44daaa553be144b34ee2a9c1406bfabd64736f6c63430005100032",
  "source": "// SPDX-License-Identifier: MIT\r\npragma solidity >=0.4.21 <0.7.0;\r\n\r\n// Category.deployed().then(function(i) {cat = i;})\r\n// Factory.deployed().then(function(i) {fact = i;})\r\n\r\ncontract Category\r\n{\r\n    string public topicHeader;\r\n    uint public opinionCount;\r\n\r\n    struct Opinion\r\n    {\r\n        uint id;\r\n        string topic;\r\n        uint voteFor;\r\n        uint voteAgainst;\r\n    }\r\n\r\n    mapping (uint => Opinion) public opinions;\r\n    function setTopicHeader(string memory _topicHeader) public\r\n    {\r\n        topicHeader = _topicHeader;\r\n    }\r\n\r\n    function addNewOpinion(string memory _topic) public\r\n    {\r\n        opinionCount ++;\r\n\r\n        opinions[opinionCount] = Opinion(opinionCount, _topic, 0, 0);\r\n    }\r\n\r\n}\r\n\r\ncontract Factory\r\n{\r\n    mapping (string => address) public categoryList;\r\n    mapping (string => bool) public categoryExists;\r\n\r\n    event opinionAdded(string _topic);\r\n    event CategoryCreated(string _topicHeader);\r\n\r\n    function addNewOpinion(string memory _topicHeader, string memory _topic) public\r\n    {\r\n        address categoryAddress = getCategoryAddress(_topicHeader);\r\n        Category categoryInstance = Category(categoryAddress);\r\n\r\n        require(categoryExists[_topicHeader], \"New Category contract was not created\");\r\n\r\n        categoryInstance.addNewOpinion(_topic);\r\n\r\n        emit opinionAdded(_topic);\r\n\r\n    }\r\n\r\n    function getCategoryAddress(string memory _topicHeader) public returns (address)\r\n    {\r\n        if(categoryExists[_topicHeader])\r\n            return categoryList[_topicHeader];\r\n        else\r\n            createNewCategory(_topicHeader);\r\n    }\r\n\r\n    function createNewCategory(string memory _topicHeader) public returns (address)\r\n    {\r\n        Category t = new Category();\r\n        t.setTopicHeader(_topicHeader);\r\n\r\n        addCategory(_topicHeader, address(t));\r\n        emit CategoryCreated(_topicHeader);\r\n        return address(t);\r\n    }\r\n\r\n    function addCategory(string memory _topicHeader, address _address) public\r\n    {\r\n        categoryList[_topicHeader] = _address;\r\n        categoryExists[_topicHeader] = true;\r\n    }\r\n\r\n}",
  "sourcePath": "C:\\Users\\Tejas\\Projects\\Polling-system\\contracts\\Factory.sol",
  "compiler": {
    "name": "solc",
    "version": "0.5.16+commit.9c3226ce.Emscripten.clang"
  },
  "schemaVersion": "3.2.2",
  "updatedAt": "2020-07-29T13:22:33.025Z",
  "networkType": "ethereum",
  "devdoc": {
    "methods": {}
  },
  "userdoc": {
    "methods": {}
  }
}