{
  "contractName": "Opinion",
  "abi": [
    {
      "constant": true,
      "inputs": [
        {
          "internalType": "uint256",
          "name": "",
          "type": "uint256"
        }
      ],
      "name": "topicExists",
      "outputs": [
        {
          "internalType": "bool",
          "name": "",
          "type": "bool"
        }
      ],
      "payable": false,
      "stateMutability": "view",
      "type": "function"
    },
    {
      "constant": true,
      "inputs": [
        {
          "internalType": "uint256",
          "name": "",
          "type": "uint256"
        }
      ],
      "name": "topicList",
      "outputs": [
        {
          "internalType": "uint256",
          "name": "id",
          "type": "uint256"
        },
        {
          "internalType": "uint256",
          "name": "voteFor",
          "type": "uint256"
        },
        {
          "internalType": "uint256",
          "name": "voteAgainst",
          "type": "uint256"
        }
      ],
      "payable": false,
      "stateMutability": "view",
      "type": "function"
    },
    {
      "constant": true,
      "inputs": [
        {
          "internalType": "address",
          "name": "",
          "type": "address"
        },
        {
          "internalType": "uint256",
          "name": "",
          "type": "uint256"
        }
      ],
      "name": "voters",
      "outputs": [
        {
          "internalType": "bool",
          "name": "",
          "type": "bool"
        }
      ],
      "payable": false,
      "stateMutability": "view",
      "type": "function"
    },
    {
      "constant": false,
      "inputs": [
        {
          "internalType": "uint256",
          "name": "_id",
          "type": "uint256"
        }
      ],
      "name": "addTopic",
      "outputs": [],
      "payable": false,
      "stateMutability": "nonpayable",
      "type": "function"
    },
    {
      "constant": false,
      "inputs": [
        {
          "internalType": "uint256",
          "name": "_id",
          "type": "uint256"
        }
      ],
      "name": "voteFor",
      "outputs": [],
      "payable": false,
      "stateMutability": "nonpayable",
      "type": "function"
    }
  ],
  "bytecode": "0x608060405234801561001057600080fd5b506104e1806100206000396000f3fe608060405234801561001057600080fd5b50600436106100575760003560e01c80632d8a822f1461005c578063585b131f1461008a5780635c134d66146100d057806384ef6cf71461013657806386a5053514610186575b600080fd5b6100886004803603602081101561007257600080fd5b81019080803590602001909291905050506101b4565b005b6100b6600480360360208110156100a057600080fd5b8101908080359060200190929190505050610232565b604051808215151515815260200191505060405180910390f35b61011c600480360360408110156100e657600080fd5b81019080803573ffffffffffffffffffffffffffffffffffffffff16906020019092919080359060200190929190505050610252565b604051808215151515815260200191505060405180910390f35b6101626004803603602081101561014c57600080fd5b8101908080359060200190929190505050610281565b60405180848152602001838152602001828152602001935050505060405180910390f35b6101b26004803603602081101561019c57600080fd5b81019080803590602001909291905050506102ab565b005b6040518060600160405280828152602001600081526020016000815250600080838152602001908152602001600020600082015181600001556020820151816001015560408201518160020155905050600180600083815260200190815260200160002060006101000a81548160ff02191690831515021790555050565b60016020528060005260406000206000915054906101000a900460ff1681565b60026020528160005260406000206020528060005260406000206000915091509054906101000a900460ff1681565b60006020528060005260406000206000915090508060000154908060010154908060020154905083565b6001600082815260200190815260200160002060009054906101000a900460ff16610321576040517f08c379a000000000000000000000000000000000000000000000000000000000815260040180806020018281038252602181526020018061048c6021913960400191505060405180910390fd5b600260003373ffffffffffffffffffffffffffffffffffffffff1673ffffffffffffffffffffffffffffffffffffffff168152602001908152602001600020600082815260200190815260200160002060009054906101000a900460ff16156103d5576040517f08c379a00000000000000000000000000000000000000000000000000000000081526004018080602001828103825260258152602001806104676025913960400191505060405180910390fd5b6001600260003373ffffffffffffffffffffffffffffffffffffffff1673ffffffffffffffffffffffffffffffffffffffff168152602001908152602001600020600083815260200190815260200160002060006101000a81548160ff021916908315150217905550600080828152602001908152602001600020600101600081548092919060010191905055505056fe557365722068617320616c726561647920766f746564206f6e20676976656e20746f706963746f706963206f6620676976656e20696420446f6573206e6f7420657869737473a265627a7a723158204214ec851f12031676af7776fe94294805abd2db8a9aa4435022f3dea4cb8e6364736f6c63430005100032",
  "source": "// SPDX-License-Identifier: MIT\r\npragma solidity >=0.4.21 <0.7.0;\r\n\r\n// Category.deployed().then(function(i) {cat = i;})\r\n// Factory.deployed().then(function(i) {fact = i;})\r\n\r\ncontract Opinion\r\n{\r\n\r\n    struct Topic\r\n    {\r\n        uint id;\r\n        uint voteFor;\r\n        uint voteAgainst;\r\n    }\r\n    mapping(uint => Topic) public topicList;\r\n    mapping(uint => bool) public topicExists;\r\n\r\n    function addTopic(uint _id) public\r\n    {\r\n        topicList[_id] = Topic(_id, 0, 0);\r\n        topicExists[_id] = true;\r\n    }\r\n\r\n    mapping(address => mapping(uint => bool)) public voters;\r\n\r\n    function voteFor(uint _id) public\r\n    {\r\n        // Validate topic id\r\n        require(topicExists[_id], \"topic of given id Does not exists\");\r\n\r\n        // Validate if user has already voted\r\n        require(!voters[msg.sender][_id], \"User has already voted on given topic\");\r\n\r\n        // Record user vote\r\n\r\n        voters[msg.sender][_id] = true;\r\n        topicList[_id].voteFor++;\r\n    }\r\n\r\n}",
  "sourcePath": "C:\\Users\\Tejas\\Projects\\Polling-system\\contracts\\Opinion.sol",
  "compiler": {
    "name": "solc",
    "version": "0.5.16+commit.9c3226ce.Emscripten.clang"
  },
  "schemaVersion": "3.2.2",
  "updatedAt": "2020-07-30T09:02:15.811Z",
  "networkType": "ethereum",
  "devdoc": {
    "methods": {}
  },
  "userdoc": {
    "methods": {}
  }
}